{
  "_format": "hh-sol-artifact-1",
  "contractName": "TalkoFactory",
  "sourceName": "contracts/TalkoFactory.sol",
  "abi": [
    {
      "inputs": [
        {
          "internalType": "address",
          "name": "_shareableTokenBeacon_vLogic",
          "type": "address"
        },
        {
          "internalType": "address",
          "name": "_likeTokenBeacon_vLogic",
          "type": "address"
        },
        {
          "internalType": "address",
          "name": "_endorseTokenBeacon_vLogic",
          "type": "address"
        }
      ],
      "stateMutability": "nonpayable",
      "type": "constructor"
    },
    {
      "anonymous": false,
      "inputs": [
        {
          "indexed": true,
          "internalType": "address",
          "name": "_sproxy",
          "type": "address"
        },
        {
          "indexed": true,
          "internalType": "address",
          "name": "_creator",
          "type": "address"
        },
        {
          "indexed": false,
          "internalType": "string",
          "name": "_name",
          "type": "string"
        },
        {
          "indexed": false,
          "internalType": "string",
          "name": "_symbol",
          "type": "string"
        }
      ],
      "name": "EndorseERC721ProxyCreated",
      "type": "event"
    },
    {
      "anonymous": false,
      "inputs": [
        {
          "indexed": true,
          "internalType": "address",
          "name": "_sproxy",
          "type": "address"
        },
        {
          "indexed": true,
          "internalType": "address",
          "name": "_creator",
          "type": "address"
        },
        {
          "indexed": false,
          "internalType": "string",
          "name": "_name",
          "type": "string"
        },
        {
          "indexed": false,
          "internalType": "string",
          "name": "_symbol",
          "type": "string"
        }
      ],
      "name": "LikeERC721ProxyCreated",
      "type": "event"
    },
    {
      "anonymous": false,
      "inputs": [
        {
          "indexed": true,
          "internalType": "address",
          "name": "_sproxy",
          "type": "address"
        },
        {
          "indexed": true,
          "internalType": "address",
          "name": "_creator",
          "type": "address"
        },
        {
          "indexed": false,
          "internalType": "string",
          "name": "_name",
          "type": "string"
        },
        {
          "indexed": false,
          "internalType": "string",
          "name": "_symbol",
          "type": "string"
        }
      ],
      "name": "ShareableERC721ProxyCreated",
      "type": "event"
    },
    {
      "inputs": [],
      "name": "EndorseERC721BeaconAddress",
      "outputs": [
        {
          "internalType": "address",
          "name": "",
          "type": "address"
        }
      ],
      "stateMutability": "view",
      "type": "function"
    },
    {
      "inputs": [],
      "name": "LikeERC721BeaconAddress",
      "outputs": [
        {
          "internalType": "address",
          "name": "",
          "type": "address"
        }
      ],
      "stateMutability": "view",
      "type": "function"
    },
    {
      "inputs": [],
      "name": "ShareableERC721BeaconAddress",
      "outputs": [
        {
          "internalType": "address",
          "name": "",
          "type": "address"
        }
      ],
      "stateMutability": "view",
      "type": "function"
    },
    {
      "inputs": [
        {
          "internalType": "string",
          "name": "_name",
          "type": "string"
        },
        {
          "internalType": "string",
          "name": "_symbol",
          "type": "string"
        },
        {
          "internalType": "uint256",
          "name": "_index",
          "type": "uint256"
        },
        {
          "internalType": "address",
          "name": "_owner",
          "type": "address"
        }
      ],
      "name": "createEProxy",
      "outputs": [
        {
          "internalType": "address",
          "name": "",
          "type": "address"
        }
      ],
      "stateMutability": "nonpayable",
      "type": "function"
    },
    {
      "inputs": [
        {
          "internalType": "string",
          "name": "_name",
          "type": "string"
        },
        {
          "internalType": "string",
          "name": "_symbol",
          "type": "string"
        },
        {
          "internalType": "uint256",
          "name": "_index",
          "type": "uint256"
        },
        {
          "internalType": "address",
          "name": "_owner",
          "type": "address"
        }
      ],
      "name": "createLProxy",
      "outputs": [
        {
          "internalType": "address",
          "name": "",
          "type": "address"
        }
      ],
      "stateMutability": "nonpayable",
      "type": "function"
    },
    {
      "inputs": [
        {
          "internalType": "string",
          "name": "_name",
          "type": "string"
        },
        {
          "internalType": "string",
          "name": "_symbol",
          "type": "string"
        },
        {
          "internalType": "uint256",
          "name": "_index",
          "type": "uint256"
        },
        {
          "internalType": "address",
          "name": "_owner",
          "type": "address"
        }
      ],
      "name": "createSProxy",
      "outputs": [
        {
          "internalType": "address",
          "name": "",
          "type": "address"
        }
      ],
      "stateMutability": "nonpayable",
      "type": "function"
    },
    {
      "inputs": [
        {
          "internalType": "string",
          "name": "_name",
          "type": "string"
        },
        {
          "internalType": "string",
          "name": "_symbol",
          "type": "string"
        }
      ],
      "name": "endorsableProxyNameAndSymbolExists",
      "outputs": [
        {
          "internalType": "bool",
          "name": "",
          "type": "bool"
        }
      ],
      "stateMutability": "view",
      "type": "function"
    },
    {
      "inputs": [
        {
          "internalType": "string",
          "name": "_name",
          "type": "string"
        },
        {
          "internalType": "string",
          "name": "_symbol",
          "type": "string"
        }
      ],
      "name": "likeableProxyNameAndSymbolExists",
      "outputs": [
        {
          "internalType": "bool",
          "name": "",
          "type": "bool"
        }
      ],
      "stateMutability": "view",
      "type": "function"
    },
    {
      "inputs": [
        {
          "internalType": "string",
          "name": "_name",
          "type": "string"
        },
        {
          "internalType": "string",
          "name": "_symbol",
          "type": "string"
        }
      ],
      "name": "shareableProxyNameAndSymbolExists",
      "outputs": [
        {
          "internalType": "bool",
          "name": "",
          "type": "bool"
        }
      ],
      "stateMutability": "view",
      "type": "function"
    }
  ],
  "bytecode": "0x60e06040523480156200001157600080fd5b5060405162003b4838038062003b48833981810160405281019062000037919062000202565b823360405162000047906200018a565b620000549291906200026f565b604051809103906000f08015801562000071573d6000803e3d6000fd5b5073ffffffffffffffffffffffffffffffffffffffff1660808173ffffffffffffffffffffffffffffffffffffffff16815250508133604051620000b5906200018a565b620000c29291906200026f565b604051809103906000f080158015620000df573d6000803e3d6000fd5b5073ffffffffffffffffffffffffffffffffffffffff1660a08173ffffffffffffffffffffffffffffffffffffffff1681525050803360405162000123906200018a565b620001309291906200026f565b604051809103906000f0801580156200014d573d6000803e3d6000fd5b5073ffffffffffffffffffffffffffffffffffffffff1660c08173ffffffffffffffffffffffffffffffffffffffff16815250505050506200029c565b6117a480620023a483390190565b600080fd5b600073ffffffffffffffffffffffffffffffffffffffff82169050919050565b6000620001ca826200019d565b9050919050565b620001dc81620001bd565b8114620001e857600080fd5b50565b600081519050620001fc81620001d1565b92915050565b6000806000606084860312156200021e576200021d62000198565b5b60006200022e86828701620001eb565b93505060206200024186828701620001eb565b92505060406200025486828701620001eb565b9150509250925092565b6200026981620001bd565b82525050565b60006040820190506200028660008301856200025e565b6200029560208301846200025e565b9392505050565b60805160a05160c0516120c3620002e16000396000818161026201526107eb0152600081816105db015261061201526000818161041201526105b301526120c36000f3fe60806040523480156200001157600080fd5b5060043610620000a05760003560e01c80636298010c116200006f5780636298010c1462000155578063a239bb59146200018b578063f0483c3514620001c1578063f3c1612514620001e3578063f5397309146200021957620000a0565b8063028ba1da14620000a55780630dcc3e9414620000db5780633d23bf7f146200011157806344a413b31462000133575b600080fd5b620000c36004803603810190620000bd919062000c5a565b6200024f565b604051620000d2919062000d1b565b60405180910390f35b620000f96004803603810190620000f3919062000c5a565b620003ff565b60405162000108919062000d1b565b60405180910390f35b6200011b620005af565b6040516200012a919062000d1b565b60405180910390f35b6200013d620005d7565b6040516200014c919062000d1b565b60405180910390f35b6200017360048036038101906200016d919062000c5a565b620005ff565b60405162000182919062000d1b565b60405180910390f35b620001a96004803603810190620001a3919062000d38565b620007af565b604051620001b8919062000dda565b60405180910390f35b620001cb620007e7565b604051620001da919062000d1b565b60405180910390f35b620002016004803603810190620001fb919062000d38565b6200080f565b60405162000210919062000dda565b60405180910390f35b62000237600480360381019062000231919062000d38565b62000848565b60405162000246919062000dda565b60405180910390f35b60006200025d858562000881565b5060007f000000000000000000000000000000000000000000000000000000000000000063077f224a60e01b878786604051602401620002a09392919062000e8a565b604051602081830303815290604052907bffffffffffffffffffffffffffffffffffffffffffffffffffffffff19166020820180517bffffffffffffffffffffffffffffffffffffffffffffffffffffffff83818316178352505050506040516200030b9062000a36565b6200031892919062000f32565b604051809103906000f08015801562000335573d6000803e3d6000fd5b509050806005600086815260200190815260200160002060006101000a81548173ffffffffffffffffffffffffffffffffffffffff021916908373ffffffffffffffffffffffffffffffffffffffff1602179055503373ffffffffffffffffffffffffffffffffffffffff168173ffffffffffffffffffffffffffffffffffffffff167fe441502a53647f49136d0783e261a97f2041c4a23c185376894bd84c8ecb3ea38888604051620003eb92919062000f66565b60405180910390a380915050949350505050565b60006200040d858562000913565b5060007f000000000000000000000000000000000000000000000000000000000000000063077f224a60e01b878786604051602401620004509392919062000e8a565b604051602081830303815290604052907bffffffffffffffffffffffffffffffffffffffffffffffffffffffff19166020820180517bffffffffffffffffffffffffffffffffffffffffffffffffffffffff8381831617835250505050604051620004bb9062000a36565b620004c892919062000f32565b604051809103906000f080158015620004e5573d6000803e3d6000fd5b509050806003600086815260200190815260200160002060006101000a81548173ffffffffffffffffffffffffffffffffffffffff021916908373ffffffffffffffffffffffffffffffffffffffff1602179055503373ffffffffffffffffffffffffffffffffffffffff168173ffffffffffffffffffffffffffffffffffffffff167f0fd98d454cf9377894281f5fd6630872388451935e35d8b380deb1eca8fff90988886040516200059b92919062000f66565b60405180910390a380915050949350505050565b60007f0000000000000000000000000000000000000000000000000000000000000000905090565b60007f0000000000000000000000000000000000000000000000000000000000000000905090565b60006200060d8585620009a4565b5060007f000000000000000000000000000000000000000000000000000000000000000063077f224a60e01b878786604051602401620006509392919062000e8a565b604051602081830303815290604052907bffffffffffffffffffffffffffffffffffffffffffffffffffffffff19166020820180517bffffffffffffffffffffffffffffffffffffffffffffffffffffffff8381831617835250505050604051620006bb9062000a36565b620006c892919062000f32565b604051809103906000f080158015620006e5573d6000803e3d6000fd5b509050806004600086815260200190815260200160002060006101000a81548173ffffffffffffffffffffffffffffffffffffffff021916908373ffffffffffffffffffffffffffffffffffffffff1602179055503373ffffffffffffffffffffffffffffffffffffffff168173ffffffffffffffffffffffffffffffffffffffff167f53af30b9917c2940559f465c228df52f44cdb0d9358dfed6f0ca12054a1cd47d88886040516200079b92919062000f66565b60405180910390a380915050949350505050565b600080838051906020012090506000838051906020012090508060008084815260200190815260200160002054149250505092915050565b60007f0000000000000000000000000000000000000000000000000000000000000000905090565b60008083805190602001209050600083805190602001209050806001600084815260200190815260200160002054149250505092915050565b60008083805190602001209050600083805190602001209050806002600084815260200190815260200160002054149250505092915050565b600080151562000892848462000848565b151514620008d7576040517f08c379a0000000000000000000000000000000000000000000000000000000008152600401620008ce9062001017565b60405180910390fd5b60008380519060200120905060008380519060200120905080600260008481526020019081526020016000208190555060019250505092915050565b6000801515620009248484620007af565b15151462000969576040517f08c379a0000000000000000000000000000000000000000000000000000000008152600401620009609062001017565b60405180910390fd5b600083805190602001209050600083805190602001209050806000808481526020019081526020016000208190555060019250505092915050565b6000801515620009b584846200080f565b151514620009fa576040517f08c379a0000000000000000000000000000000000000000000000000000000008152600401620009f19062001017565b60405180910390fd5b60008380519060200120905060008380519060200120905080600160008481526020019081526020016000208190555060019250505092915050565b611054806200103a83390190565b6000604051905090565b600080fd5b600080fd5b600080fd5b600080fd5b6000601f19601f8301169050919050565b7f4e487b7100000000000000000000000000000000000000000000000000000000600052604160045260246000fd5b62000aad8262000a62565b810181811067ffffffffffffffff8211171562000acf5762000ace62000a73565b5b80604052505050565b600062000ae462000a44565b905062000af2828262000aa2565b919050565b600067ffffffffffffffff82111562000b155762000b1462000a73565b5b62000b208262000a62565b9050602081019050919050565b82818337600083830152505050565b600062000b5362000b4d8462000af7565b62000ad8565b90508281526020810184848401111562000b725762000b7162000a5d565b5b62000b7f84828562000b2d565b509392505050565b600082601f83011262000b9f5762000b9e62000a58565b5b813562000bb184826020860162000b3c565b91505092915050565b6000819050919050565b62000bcf8162000bba565b811462000bdb57600080fd5b50565b60008135905062000bef8162000bc4565b92915050565b600073ffffffffffffffffffffffffffffffffffffffff82169050919050565b600062000c228262000bf5565b9050919050565b62000c348162000c15565b811462000c4057600080fd5b50565b60008135905062000c548162000c29565b92915050565b6000806000806080858703121562000c775762000c7662000a4e565b5b600085013567ffffffffffffffff81111562000c985762000c9762000a53565b5b62000ca68782880162000b87565b945050602085013567ffffffffffffffff81111562000cca5762000cc962000a53565b5b62000cd88782880162000b87565b935050604062000ceb8782880162000bde565b925050606062000cfe8782880162000c43565b91505092959194509250565b62000d158162000c15565b82525050565b600060208201905062000d32600083018462000d0a565b92915050565b6000806040838503121562000d525762000d5162000a4e565b5b600083013567ffffffffffffffff81111562000d735762000d7262000a53565b5b62000d818582860162000b87565b925050602083013567ffffffffffffffff81111562000da55762000da462000a53565b5b62000db38582860162000b87565b9150509250929050565b60008115159050919050565b62000dd48162000dbd565b82525050565b600060208201905062000df1600083018462000dc9565b92915050565b600081519050919050565b600082825260208201905092915050565b60005b8381101562000e3357808201518184015260208101905062000e16565b8381111562000e43576000848401525b50505050565b600062000e568262000df7565b62000e62818562000e02565b935062000e7481856020860162000e13565b62000e7f8162000a62565b840191505092915050565b6000606082019050818103600083015262000ea6818662000e49565b9050818103602083015262000ebc818562000e49565b905062000ecd604083018462000d0a565b949350505050565b600081519050919050565b600082825260208201905092915050565b600062000efe8262000ed5565b62000f0a818562000ee0565b935062000f1c81856020860162000e13565b62000f278162000a62565b840191505092915050565b600060408201905062000f49600083018562000d0a565b818103602083015262000f5d818462000ef1565b90509392505050565b6000604082019050818103600083015262000f82818562000e49565b9050818103602083015262000f98818462000e49565b90509392505050565b7f412070726f7879207769746820676976656e206e616d6520616e642073796d6260008201527f6f6c20616c726561647920657869737473210000000000000000000000000000602082015250565b600062000fff60328362000e02565b91506200100c8262000fa1565b604082019050919050565b60006020820190508181036000830152620010328162000ff0565b905091905056fe608060405260405162001054380380620010548339818101604052810190620000299190620006ea565b60017fa3f0ad74e5423aebfd80d3ef4346578335a9a72aeaee59ff6cb3582b35133d5160001c6200005b919062000789565b60001b7fa3f0ad74e5423aebfd80d3ef4346578335a9a72aeaee59ff6cb3582b35133d5060001b14620000935762000092620007c4565b5b620000a782826000620000af60201b60201c565b505062000ad4565b620000c083620001a660201b60201c565b8273ffffffffffffffffffffffffffffffffffffffff167f1cf3b03a6cf19fa2baba4df148e9dcabedea7f8a5c07840e207e5c089be95d3e60405160405180910390a2600082511180620001115750805b15620001a1576200019f8373ffffffffffffffffffffffffffffffffffffffff16635c60da1b6040518163ffffffff1660e01b8152600401602060405180830381865afa15801562000167573d6000803e3d6000fd5b505050506040513d601f19601f820116820180604052508101906200018d9190620007f3565b836200034560201b620000371760201c565b505b505050565b620001bc816200037b60201b620000641760201c565b620001fe576040517f08c379a0000000000000000000000000000000000000000000000000000000008152600401620001f590620008ac565b60405180910390fd5b620002858173ffffffffffffffffffffffffffffffffffffffff16635c60da1b6040518163ffffffff1660e01b8152600401602060405180830381865afa1580156200024e573d6000803e3d6000fd5b505050506040513d601f19601f82011682018060405250810190620002749190620007f3565b6200037b60201b620000641760201c565b620002c7576040517f08c379a0000000000000000000000000000000000000000000000000000000008152600401620002be9062000944565b60405180910390fd5b80620003017fa3f0ad74e5423aebfd80d3ef4346578335a9a72aeaee59ff6cb3582b35133d5060001b6200038e60201b620000771760201c565b60000160006101000a81548173ffffffffffffffffffffffffffffffffffffffff021916908373ffffffffffffffffffffffffffffffffffffffff16021790555050565b60606200037383836040518060600160405280602781526020016200102d602791396200039860201b60201c565b905092915050565b600080823b905060008111915050919050565b6000819050919050565b6060620003ab846200037b60201b60201c565b620003ed576040517f08c379a0000000000000000000000000000000000000000000000000000000008152600401620003e490620009dc565b60405180910390fd5b6000808573ffffffffffffffffffffffffffffffffffffffff168560405162000417919062000a4b565b600060405180830381855af49150503d806000811462000454576040519150601f19603f3d011682016040523d82523d6000602084013e62000459565b606091505b5091509150620004718282866200047c60201b60201c565b925050509392505050565b606083156200048e57829050620004e1565b600083511115620004a25782518084602001fd5b816040517f08c379a0000000000000000000000000000000000000000000000000000000008152600401620004d8919062000ab0565b60405180910390fd5b9392505050565b6000604051905090565b600080fd5b600080fd5b600073ffffffffffffffffffffffffffffffffffffffff82169050919050565b60006200052982620004fc565b9050919050565b6200053b816200051c565b81146200054757600080fd5b50565b6000815190506200055b8162000530565b92915050565b600080fd5b600080fd5b6000601f19601f8301169050919050565b7f4e487b7100000000000000000000000000000000000000000000000000000000600052604160045260246000fd5b620005b6826200056b565b810181811067ffffffffffffffff82111715620005d857620005d76200057c565b5b80604052505050565b6000620005ed620004e8565b9050620005fb8282620005ab565b919050565b600067ffffffffffffffff8211156200061e576200061d6200057c565b5b62000629826200056b565b9050602081019050919050565b60005b838110156200065657808201518184015260208101905062000639565b8381111562000666576000848401525b50505050565b6000620006836200067d8462000600565b620005e1565b905082815260208101848484011115620006a257620006a162000566565b5b620006af84828562000636565b509392505050565b600082601f830112620006cf57620006ce62000561565b5b8151620006e18482602086016200066c565b91505092915050565b60008060408385031215620007045762000703620004f2565b5b600062000714858286016200054a565b925050602083015167ffffffffffffffff811115620007385762000737620004f7565b5b6200074685828601620006b7565b9150509250929050565b6000819050919050565b7f4e487b7100000000000000000000000000000000000000000000000000000000600052601160045260246000fd5b6000620007968262000750565b9150620007a38362000750565b925082821015620007b957620007b86200075a565b5b828203905092915050565b7f4e487b7100000000000000000000000000000000000000000000000000000000600052600160045260246000fd5b6000602082840312156200080c576200080b620004f2565b5b60006200081c848285016200054a565b91505092915050565b600082825260208201905092915050565b7f455243313936373a206e657720626561636f6e206973206e6f74206120636f6e60008201527f7472616374000000000000000000000000000000000000000000000000000000602082015250565b60006200089460258362000825565b9150620008a18262000836565b604082019050919050565b60006020820190508181036000830152620008c78162000885565b9050919050565b7f455243313936373a20626561636f6e20696d706c656d656e746174696f6e206960008201527f73206e6f74206120636f6e747261637400000000000000000000000000000000602082015250565b60006200092c60308362000825565b91506200093982620008ce565b604082019050919050565b600060208201905081810360008301526200095f816200091d565b9050919050565b7f416464726573733a2064656c65676174652063616c6c20746f206e6f6e2d636f60008201527f6e74726163740000000000000000000000000000000000000000000000000000602082015250565b6000620009c460268362000825565b9150620009d18262000966565b604082019050919050565b60006020820190508181036000830152620009f781620009b5565b9050919050565b600081519050919050565b600081905092915050565b600062000a2182620009fe565b62000a2d818562000a09565b935062000a3f81856020860162000636565b80840191505092915050565b600062000a59828462000a14565b915081905092915050565b600081519050919050565b600062000a7c8262000a64565b62000a88818562000825565b935062000a9a81856020860162000636565b62000aa5816200056b565b840191505092915050565b6000602082019050818103600083015262000acc818462000a6f565b905092915050565b6105498062000ae46000396000f3fe6080604052366100135761001161001d565b005b61001b61001d565b005b610025610081565b610035610030610083565b610100565b565b606061005c83836040518060600160405280602781526020016104ed60279139610126565b905092915050565b600080823b905060008111915050919050565b6000819050919050565b565b600061008d6101f3565b73ffffffffffffffffffffffffffffffffffffffff16635c60da1b6040518163ffffffff1660e01b8152600401602060405180830381865afa1580156100d7573d6000803e3d6000fd5b505050506040513d601f19601f820116820180604052508101906100fb9190610314565b905090565b3660008037600080366000845af43d6000803e8060008114610121573d6000f35b3d6000fd5b606061013184610064565b610170576040517f08c379a0000000000000000000000000000000000000000000000000000000008152600401610167906103c4565b60405180910390fd5b6000808573ffffffffffffffffffffffffffffffffffffffff1685604051610198919061045e565b600060405180830381855af49150503d80600081146101d3576040519150601f19603f3d011682016040523d82523d6000602084013e6101d8565b606091505b50915091506101e882828661024a565b925050509392505050565b60006102217fa3f0ad74e5423aebfd80d3ef4346578335a9a72aeaee59ff6cb3582b35133d5060001b610077565b60000160009054906101000a900473ffffffffffffffffffffffffffffffffffffffff16905090565b6060831561025a578290506102aa565b60008351111561026d5782518084602001fd5b816040517f08c379a00000000000000000000000000000000000000000000000000000000081526004016102a191906104ca565b60405180910390fd5b9392505050565b600080fd5b600073ffffffffffffffffffffffffffffffffffffffff82169050919050565b60006102e1826102b6565b9050919050565b6102f1816102d6565b81146102fc57600080fd5b50565b60008151905061030e816102e8565b92915050565b60006020828403121561032a576103296102b1565b5b6000610338848285016102ff565b91505092915050565b600082825260208201905092915050565b7f416464726573733a2064656c65676174652063616c6c20746f206e6f6e2d636f60008201527f6e74726163740000000000000000000000000000000000000000000000000000602082015250565b60006103ae602683610341565b91506103b982610352565b604082019050919050565b600060208201905081810360008301526103dd816103a1565b9050919050565b600081519050919050565b600081905092915050565b60005b838110156104185780820151818401526020810190506103fd565b83811115610427576000848401525b50505050565b6000610438826103e4565b61044281856103ef565b93506104528185602086016103fa565b80840191505092915050565b600061046a828461042d565b915081905092915050565b600081519050919050565b6000601f19601f8301169050919050565b600061049c82610475565b6104a68185610341565b93506104b68185602086016103fa565b6104bf81610480565b840191505092915050565b600060208201905081810360008301526104e48184610491565b90509291505056fe416464726573733a206c6f772d6c6576656c2064656c65676174652063616c6c206661696c6564a264697066735822122038180c93bc90a05b30d773673f3761e016715fc88ee674d29b8dbf9cbd5e111c64736f6c634300080c0033416464726573733a206c6f772d6c6576656c2064656c65676174652063616c6c206661696c6564a2646970667358221220a7a8ea5c922cbb4cf69e104dd34516419a988304c54a81752921cb70140ed6fe64736f6c634300080c003360a06040523480156200001157600080fd5b50604051620017a4380380620017a48339818101604052810190620000379190620003a0565b620000576200004b6200011d60201b60201c565b6200012560201b60201c565b81604051620000669062000328565b620000729190620003f8565b604051809103906000f0801580156200008f573d6000803e3d6000fd5b5073ffffffffffffffffffffffffffffffffffffffff1660808173ffffffffffffffffffffffffffffffffffffffff168152505081600160006101000a81548173ffffffffffffffffffffffffffffffffffffffff021916908373ffffffffffffffffffffffffffffffffffffffff1602179055506200011581620001e960201b60201c565b505062000530565b600033905090565b60008060009054906101000a900473ffffffffffffffffffffffffffffffffffffffff169050816000806101000a81548173ffffffffffffffffffffffffffffffffffffffff021916908373ffffffffffffffffffffffffffffffffffffffff1602179055508173ffffffffffffffffffffffffffffffffffffffff168173ffffffffffffffffffffffffffffffffffffffff167f8be0079c531659141344cd1fd0a4f28419497f9722a3daafe3b4186f6b6457e060405160405180910390a35050565b620001f96200011d60201b60201c565b73ffffffffffffffffffffffffffffffffffffffff166200021f620002ff60201b60201c565b73ffffffffffffffffffffffffffffffffffffffff161462000278576040517f08c379a00000000000000000000000000000000000000000000000000000000081526004016200026f9062000476565b60405180910390fd5b600073ffffffffffffffffffffffffffffffffffffffff168173ffffffffffffffffffffffffffffffffffffffff161415620002eb576040517f08c379a0000000000000000000000000000000000000000000000000000000008152600401620002e2906200050e565b60405180910390fd5b620002fc816200012560201b60201c565b50565b60008060009054906101000a900473ffffffffffffffffffffffffffffffffffffffff16905090565b610a918062000d1383390190565b600080fd5b600073ffffffffffffffffffffffffffffffffffffffff82169050919050565b600062000368826200033b565b9050919050565b6200037a816200035b565b81146200038657600080fd5b50565b6000815190506200039a816200036f565b92915050565b60008060408385031215620003ba57620003b962000336565b5b6000620003ca8582860162000389565b9250506020620003dd8582860162000389565b9150509250929050565b620003f2816200035b565b82525050565b60006020820190506200040f6000830184620003e7565b92915050565b600082825260208201905092915050565b7f4f776e61626c653a2063616c6c6572206973206e6f7420746865206f776e6572600082015250565b60006200045e60208362000415565b91506200046b8262000426565b602082019050919050565b6000602082019050818103600083015262000491816200044f565b9050919050565b7f4f776e61626c653a206e6577206f776e657220697320746865207a65726f206160008201527f6464726573730000000000000000000000000000000000000000000000000000602082015250565b6000620004f660268362000415565b9150620005038262000498565b604082019050919050565b600060208201905081810360008301526200052981620004e7565b9050919050565b6080516107c06200055360003960008181610181015261025201526107c06000f3fe608060405234801561001057600080fd5b50600436106100625760003560e01c80631c1b8772146100675780635c60da1b14610083578063715018a6146100a15780638da5cb5b146100ab578063d723c565146100c9578063f2fde38b146100e7575b600080fd5b610081600480360381019061007c91906105e2565b610103565b005b61008b61024e565b604051610098919061061e565b60405180910390f35b6100a96102e4565b005b6100b361036c565b6040516100c0919061061e565b60405180910390f35b6100d1610395565b6040516100de919061061e565b60405180910390f35b61010160048036038101906100fc91906105e2565b6103bb565b005b61010b6104b3565b73ffffffffffffffffffffffffffffffffffffffff1661012961036c565b73ffffffffffffffffffffffffffffffffffffffff161461017f576040517f08c379a000000000000000000000000000000000000000000000000000000000815260040161017690610696565b60405180910390fd5b7f000000000000000000000000000000000000000000000000000000000000000073ffffffffffffffffffffffffffffffffffffffff16633659cfe6826040518263ffffffff1660e01b81526004016101d8919061061e565b600060405180830381600087803b1580156101f257600080fd5b505af1158015610206573d6000803e3d6000fd5b5050505080600160006101000a81548173ffffffffffffffffffffffffffffffffffffffff021916908373ffffffffffffffffffffffffffffffffffffffff16021790555050565b60007f000000000000000000000000000000000000000000000000000000000000000073ffffffffffffffffffffffffffffffffffffffff16635c60da1b6040518163ffffffff1660e01b8152600401602060405180830381865afa1580156102bb573d6000803e3d6000fd5b505050506040513d601f19601f820116820180604052508101906102df91906106cb565b905090565b6102ec6104b3565b73ffffffffffffffffffffffffffffffffffffffff1661030a61036c565b73ffffffffffffffffffffffffffffffffffffffff1614610360576040517f08c379a000000000000000000000000000000000000000000000000000000000815260040161035790610696565b60405180910390fd5b61036a60006104bb565b565b60008060009054906101000a900473ffffffffffffffffffffffffffffffffffffffff16905090565b600160009054906101000a900473ffffffffffffffffffffffffffffffffffffffff1681565b6103c36104b3565b73ffffffffffffffffffffffffffffffffffffffff166103e161036c565b73ffffffffffffffffffffffffffffffffffffffff1614610437576040517f08c379a000000000000000000000000000000000000000000000000000000000815260040161042e90610696565b60405180910390fd5b600073ffffffffffffffffffffffffffffffffffffffff168173ffffffffffffffffffffffffffffffffffffffff1614156104a7576040517f08c379a000000000000000000000000000000000000000000000000000000000815260040161049e9061076a565b60405180910390fd5b6104b0816104bb565b50565b600033905090565b60008060009054906101000a900473ffffffffffffffffffffffffffffffffffffffff169050816000806101000a81548173ffffffffffffffffffffffffffffffffffffffff021916908373ffffffffffffffffffffffffffffffffffffffff1602179055508173ffffffffffffffffffffffffffffffffffffffff168173ffffffffffffffffffffffffffffffffffffffff167f8be0079c531659141344cd1fd0a4f28419497f9722a3daafe3b4186f6b6457e060405160405180910390a35050565b600080fd5b600073ffffffffffffffffffffffffffffffffffffffff82169050919050565b60006105af82610584565b9050919050565b6105bf816105a4565b81146105ca57600080fd5b50565b6000813590506105dc816105b6565b92915050565b6000602082840312156105f8576105f761057f565b5b6000610606848285016105cd565b91505092915050565b610618816105a4565b82525050565b6000602082019050610633600083018461060f565b92915050565b600082825260208201905092915050565b7f4f776e61626c653a2063616c6c6572206973206e6f7420746865206f776e6572600082015250565b6000610680602083610639565b915061068b8261064a565b602082019050919050565b600060208201905081810360008301526106af81610673565b9050919050565b6000815190506106c5816105b6565b92915050565b6000602082840312156106e1576106e061057f565b5b60006106ef848285016106b6565b91505092915050565b7f4f776e61626c653a206e6577206f776e657220697320746865207a65726f206160008201527f6464726573730000000000000000000000000000000000000000000000000000602082015250565b6000610754602683610639565b915061075f826106f8565b604082019050919050565b6000602082019050818103600083015261078381610747565b905091905056fea26469706673582212207cd75f027a1a8407e0d32faba122855b79aa6445bf4bb08c79f021022f39fed764736f6c634300080c0033608060405234801561001057600080fd5b5060405162000a9138038062000a918339818101604052810190610034919061023d565b61005061004561006560201b60201c565b61006d60201b60201c565b61005f8161013160201b60201c565b5061030d565b600033905090565b60008060009054906101000a900473ffffffffffffffffffffffffffffffffffffffff169050816000806101000a81548173ffffffffffffffffffffffffffffffffffffffff021916908373ffffffffffffffffffffffffffffffffffffffff1602179055508173ffffffffffffffffffffffffffffffffffffffff168173ffffffffffffffffffffffffffffffffffffffff167f8be0079c531659141344cd1fd0a4f28419497f9722a3daafe3b4186f6b6457e060405160405180910390a35050565b610144816101c760201b6103781760201c565b610183576040517f08c379a000000000000000000000000000000000000000000000000000000000815260040161017a906102ed565b60405180910390fd5b80600160006101000a81548173ffffffffffffffffffffffffffffffffffffffff021916908373ffffffffffffffffffffffffffffffffffffffff16021790555050565b600080823b905060008111915050919050565b600080fd5b600073ffffffffffffffffffffffffffffffffffffffff82169050919050565b600061020a826101df565b9050919050565b61021a816101ff565b811461022557600080fd5b50565b60008151905061023781610211565b92915050565b600060208284031215610253576102526101da565b5b600061026184828501610228565b91505092915050565b600082825260208201905092915050565b7f5570677261646561626c65426561636f6e3a20696d706c656d656e746174696f60008201527f6e206973206e6f74206120636f6e747261637400000000000000000000000000602082015250565b60006102d760338361026a565b91506102e28261027b565b604082019050919050565b60006020820190508181036000830152610306816102ca565b9050919050565b610774806200031d6000396000f3fe608060405234801561001057600080fd5b50600436106100575760003560e01c80633659cfe61461005c5780635c60da1b14610078578063715018a6146100965780638da5cb5b146100a0578063f2fde38b146100be575b600080fd5b61007660048036038101906100719190610546565b6100da565b005b6100806101a5565b60405161008d9190610582565b60405180910390f35b61009e6101cf565b005b6100a8610257565b6040516100b59190610582565b60405180910390f35b6100d860048036038101906100d39190610546565b610280565b005b6100e261038b565b73ffffffffffffffffffffffffffffffffffffffff16610100610257565b73ffffffffffffffffffffffffffffffffffffffff1614610156576040517f08c379a000000000000000000000000000000000000000000000000000000000815260040161014d906105fa565b60405180910390fd5b61015f81610393565b8073ffffffffffffffffffffffffffffffffffffffff167fbc7cd75a20ee27fd9adebab32041f755214dbc6bffa90cc0225b39da2e5c2d3b60405160405180910390a250565b6000600160009054906101000a900473ffffffffffffffffffffffffffffffffffffffff16905090565b6101d761038b565b73ffffffffffffffffffffffffffffffffffffffff166101f5610257565b73ffffffffffffffffffffffffffffffffffffffff161461024b576040517f08c379a0000000000000000000000000000000000000000000000000000000008152600401610242906105fa565b60405180910390fd5b610255600061041f565b565b60008060009054906101000a900473ffffffffffffffffffffffffffffffffffffffff16905090565b61028861038b565b73ffffffffffffffffffffffffffffffffffffffff166102a6610257565b73ffffffffffffffffffffffffffffffffffffffff16146102fc576040517f08c379a00000000000000000000000000000000000000000000000000000000081526004016102f3906105fa565b60405180910390fd5b600073ffffffffffffffffffffffffffffffffffffffff168173ffffffffffffffffffffffffffffffffffffffff16141561036c576040517f08c379a00000000000000000000000000000000000000000000000000000000081526004016103639061068c565b60405180910390fd5b6103758161041f565b50565b600080823b905060008111915050919050565b600033905090565b61039c81610378565b6103db576040517f08c379a00000000000000000000000000000000000000000000000000000000081526004016103d29061071e565b60405180910390fd5b80600160006101000a81548173ffffffffffffffffffffffffffffffffffffffff021916908373ffffffffffffffffffffffffffffffffffffffff16021790555050565b60008060009054906101000a900473ffffffffffffffffffffffffffffffffffffffff169050816000806101000a81548173ffffffffffffffffffffffffffffffffffffffff021916908373ffffffffffffffffffffffffffffffffffffffff1602179055508173ffffffffffffffffffffffffffffffffffffffff168173ffffffffffffffffffffffffffffffffffffffff167f8be0079c531659141344cd1fd0a4f28419497f9722a3daafe3b4186f6b6457e060405160405180910390a35050565b600080fd5b600073ffffffffffffffffffffffffffffffffffffffff82169050919050565b6000610513826104e8565b9050919050565b61052381610508565b811461052e57600080fd5b50565b6000813590506105408161051a565b92915050565b60006020828403121561055c5761055b6104e3565b5b600061056a84828501610531565b91505092915050565b61057c81610508565b82525050565b60006020820190506105976000830184610573565b92915050565b600082825260208201905092915050565b7f4f776e61626c653a2063616c6c6572206973206e6f7420746865206f776e6572600082015250565b60006105e460208361059d565b91506105ef826105ae565b602082019050919050565b60006020820190508181036000830152610613816105d7565b9050919050565b7f4f776e61626c653a206e6577206f776e657220697320746865207a65726f206160008201527f6464726573730000000000000000000000000000000000000000000000000000602082015250565b600061067660268361059d565b91506106818261061a565b604082019050919050565b600060208201905081810360008301526106a581610669565b9050919050565b7f5570677261646561626c65426561636f6e3a20696d706c656d656e746174696f60008201527f6e206973206e6f74206120636f6e747261637400000000000000000000000000602082015250565b600061070860338361059d565b9150610713826106ac565b604082019050919050565b60006020820190508181036000830152610737816106fb565b905091905056fea2646970667358221220c2e3f3371a26abe8a300c0795dc24cccc49faba2a4790af7de32dda83118078164736f6c634300080c0033",
  "linkReferences": {},
  "deployedLinkReferences": {}
}